:020000040800F2
:10000000200600209D010008DF100008690F00088D
:10001000DD1000082D070008DB11000800000000BB
:10002000000000000000000000000000E3100008D5
:100030002F07000800000000E1100008E51000088C
:10004000B7010008B7010008B7010008B7010008B0
:10005000B7010008B7010008B7010008B7010008A0
:10006000B7010008B7010008B7010008B701000890
:10007000B7010008B7010008B7010008B701000880
:10008000B7010008B7010008B7010008B701000870
:10009000B7010008B7010008B7010008B701000860
:1000A000B7010008B7010008B7010008B701000850
:1000B000B7010008B7010008B7010008B701000840
:1000C000B7010008B7010008B7010008B701000830
:1000D000B7010008B7010008B7010008B701000820
:1000E000B7010008B7010008B7010008B701000810
:1000F000B7010008B7010008B7010008B701000800
:10010000B7010008B7010008B7010008B7010008EF
:10011000B7010008B7010008B7010008B7010008DF
:10012000B7010008B7010008B7010008B7010008CF
:10013000B7010008B7010008B7010008B7010008BF
:10014000B7010008B7010008B7010008B7010008AF
:10015000B7010008B7010008B7010008B70100089F
:10016000B7010008B7010008B7010008B70100088F
:10017000B7010008B7010008B7010008000000003F
:10018000B7010008B7010008DFF80CD000F0C6F98D
:1001900000480047A51800082006002006488047B0
:1001A00006480047FEE7FEE7FEE7FEE7FEE7FEE75C
:1001B000FEE7FEE7FEE7FEE75911000889010008A7
:1001C0002DE9F05F0546002092469B46884606468C
:1001D000814640241BE0284641464746224600F01F
:1001E00062F853465A46C01A914110D31146184638
:1001F000224600F049F82D1A67EB01084F462246C7
:100200000120002100F040F817EB00094E41201EAC
:10021000A4F10104DFDC484631462A464346BDE8E6
:10022000F09F00000649074A0868504343F239022C
:10023000104408604008704701490860704700009A
:10024000100000206D4EC641D2B201E000F8012B33
:10025000491EFBD270470022F6E710B513460A4646
:1002600004461946FFF7F0FF204610BD10B548437D
:10027000044601F063FB002805D00021002C02D0C9
:10028000641E0155FAE710BD202A04DB203A00FA6B
:1002900002F1002070479140C2F1200320FA03F3DD
:1002A000194390407047202A04DB203A21FA02F0DB
:1002B0000021704721FA02F3D040C2F120029140A0
:1002C0000843194670472DE9FE4F804681EA030036
:1002D000C00F0C46009021F0004123F00045B8EB20
:1002E0000200A94105D24046214690461C460B46D5
:1002F000024623F00040104347D0270DC7F30A0001
:10030000C3F30A510290401A019040286BDAC3F3FC
:10031000130040F4801B0098924620B10023D2EBDA
:10032000030A63EB0B0B01985946C0F1400250469B
:10033000FFF7AAFF06460D4650465946019A00F0BF
:10034000FFF810EB08006141002487EA115284EAAB
:10035000E7731A4340D0009A62B3019A012A4FEA28
:10036000075215DC001B61EB02014FF0004202EA6C
:100370000752CDE90042001C41F5801132462B4660
:1003800000F0FFF803B0BDE8F08F40462146F9E7E2
:10039000001B61EB0201001C41F5801300185B415A
:1003A0002018A2F5001747EB030140EAD570B619F3
:1003B0006D4111E06D084FEA360645EAC0754FEA17
:1003C0000752001B61EB0201001C41F58011490836
:1003D0004FEA30000019514132462B4603B0BDE8C8
:1003E000F04F00F0BFB80098012240000023D0EB8E
:1003F000020263EBE073009821464FEAE074B8EB29
:10040000000061EB0401E9E783F000435BE781F062
:10041000004158E72DE9FE4F81EA030404F000444F
:1004200021F0004100944FF0000B23F0004350EA0C
:1004300001045ED052EA03045BD0C3F30A54C1F353
:100440000A552C44A4F2F3340194A0FB0254C1F3E6
:10045000130141F48011C3F3130343F4801301FB30
:10046000024400FB034E840A970A44EA815447EA97
:100470008357A4FB076802958D0A05FB07854FEAA1
:10048000932C04FB0C542705029D4FEA065847EABB
:100490001637B5EB08056EEB070C870E920E47EA90
:1004A000811742EA8312A7FB0201B6EB0B0164EB52
:1004B00000042B0D43EA0C335E1844EB1C50DA4663
:1004C0005146E7FB0201C5F313044FEA0B3343EA3D
:1004D00014534FEA0432019C43EA0603A4F10C04CE
:1004E0000294009CCDE900B400F04BF803B0BDE8E5
:1004F000F08F00200146F9E70EB5C10F80EAE070E9
:100500000844CA07002140F233438DE80E000A4632
:100510000B4600F036F803B000BD0000064C074D56
:1005200006E0E06840F0010394E8070098471034C3
:10053000AC42F6D3FFF72CFEF8190008181A000891
:10054000202A06DBCB17203A41FA02F043EAE07397
:1005500006E041FA02F3D040C2F120029140084384
:100560001946704710B5141E73F1000408DA401CD8
:1005700041F1000192185B411A4301D120F00100C2
:1005800010BD2DE9F04D92469B4611B1B1FA81F2B2
:1005900002E0B0FA80F220329046FFF775FE044682
:1005A0000F4640EA0A0041EA0B0153465A46084307
:1005B00013D0114653EA010019D0C8F14002504649
:1005C000FFF771FE05460E46504659464246FFF774
:1005D0005BFE084305D0012004E020463946BDE813
:1005E000F08D0020054346EAE0762C4337430A9815
:1005F0006305E40AA0EB08000022FD0A44EA475420
:100600000A3002D500200146E9E7010510196941C9
:10061000DDE9084500196941BDE8F04DA2E72DE983
:10062000F04D81EA030404F0004B21F0004514462C
:100630004FF0000A23F0004150EA050220D054EAAE
:1006400001021DD0C5F30A570246C5F31303C1F3D7
:100650001300C1F30A5640F4801543F48013A7EB4E
:100660000608101BD64608F2FD3873EB050002D3CE
:1006700008F1010801E092185B41B8F1000F03DABC
:1006800000200146BDE8F08D00204FF480110646A1
:1006900084460EE0171B73EB050705D3121B63EBB3
:1006A000050306434CEA010C49084FEA3000921852
:1006B0005B4150EA0107EDD152EA030012D082EA11
:1006C000040083EA0501084305D0101BAB4106D2A4
:1006D0000122002306E000224FF0004302E06FF009
:1006E000010253101AEB06004CEB085110EB0A0004
:1006F00041EB0B01BDE8F04DFFF734BF30B5041EF0
:1007000071F1000404DB4FF00044404264EB01014E
:10071000141E73F1000405DB1C464FF000435242E7
:1007200063EB04038B4208BF824230BDFEE7704793
:1007300010B5202000F02CFC4FF41674204600F079
:1007400021F8282000F024FC204600F01BF8282087
:1007500000F01EFC204600F015F80F2000F018FCF9
:10076000204600F00FF8012000F012FC204600F0B7
:1007700009F8062000F00CFC2046BDE8104000F00F
:1007800001B8000070B5044600F0F0F80546601CA2
:1007900002D004480078044400F0E8F8401BA0426E
:1007A000FAD370BD000000202DE9F84FDFF87CB1CE
:1007B00000224FF001084FF0030A4FF00F090BF130
:1007C000040E00BF0B6808FA02F42340A3426ED166
:1007D0004D68022D01D0122D0ED1D50800EB850CED
:1007E000DCF820505607F70E09FA07F6B5430E69F4
:1007F000BE402E43CCF82060066855000F790AFAF7
:1008000005FC07F0030726EA0C06AF4037430760F4
:100810004E68012E05D0022E03D0112E01D0122ECB
:100820000ED18668CF6826EA0C06AF403743876052
:100830004668A6430C79C4F30014944034434460E2
:10084000C6688C6826EA0C06AC403443C4604C6829
:10085000E40065D5364C256845F48045256024685C
:1008600022F0030504F480440094324C2E19D6F88B
:10087000084895072F0F09FA07F5AC432E4DA842FB
:1008800001D1002524E02D4DA84201D101251FE012
:100890002B4DA84201D102251AE02A4DA84201D1D0
:1008A000032515E0284DA84202D1042510E037E0C9
:1008B000264DA84201D105250AE0254DA84201D1C7
:1008C000062505E0234DA84201D1072500E00825B3
:1008D000BD402543C6F80858DBF800405D464E6829
:1008E0009C43F60300D51C432C60DEF8004075469F
:1008F0004E689C43B60300D51C432C600B4D083555
:100900002C684E689C43F60200D51C432C60074DB2
:100910000C352C684E689C43B60200D51C432C60F5
:10092000521C102AFFF44EAFBDE8F88F003C014086
:100930004438024000300140000002400004024000
:1009400000080240000C0240001002400014024067
:1009500000180240001C02400069084000D001203D
:1009600070470AB1816170470904FBE7014880685C
:10097000704700000000002002488168027811449E
:1009800081607047000000200B4810B5016841F4F9
:1009900000710160016841F480610160016841F407
:1009A00080710160032000F061F8002000F006F87B
:1009B00000F024F8002010BD003C024070B50D4D41
:1009C00004464FF47A712878B1FBF0F00A490968BF
:1009D000B1FBF0F000F0B4FA48B9102C07D20022B5
:1009E0002146501E00F022F800206C6070BD0120EE
:1009F00070BD0000000000200C0000200A4808B56F
:100A0000016841F480410160006800F4804000907A
:100A10000548001F016841F080510160006800F046
:100A20008050009008BD000044380240F0B40E4BE6
:100A30001B680C46C3F30223C3F10705042D00D93C
:100A40000425191D072901D2002300E0DB1E012621
:100A500006FA05F1491E214099409E40761E164037
:100A60003143F0BC00F0BABB0CED00E0064900F0E9
:100A7000070208684FF6FF03184040EA0220034AC5
:100A800010430860704700000CED00E00000FA051C
:100A90002DE9F0470E46050065D0DFF81481D8F83F
:100AA0000000F7B200F00F00B04207D288F80070E3
:100AB000D8F8000000F00F00B04254D128683D4C37
:100AC000810712D5400703D5206840F4E05020602C
:100AD0002878000703D5206840F460402060206833
:100AE000A96820F0F000084320602878C0072DD0C6
:100AF000304968680839012812D0022813D0032829
:100B000011D00968890700292DDA216821F0030135
:100B100001432160FFF72AFF814641F2883A0EE047
:100B200009688903EFE709688901ECE7FFF71EFF11
:100B3000A0EB0901514502D90320BDE8F0872068E8
:100B4000696800F00C00B0EB810FEFD1D8F800100D
:100B5000404601F00F01B14207D90770006800F06C
:100B60000F00B04201D00120E7E72878400705D503
:100B70002068E96820F4E0500843206028780007E6
:100B800006D52068296920F4604040EAC100206051
:100B900000F016F82168084AC1F30311515CC840FF
:100BA000064908600020FFF709FF0020C5E70000A4
:100BB000003C024008380240A81900080C00002040
:100BC000154810B5006810F00C02144813D01449F1
:100BD000042A0FD0082A0ED10F4C241F2268236844
:100BE00002F03F025B0207D52068C0F38810A0FB2B
:100BF000010106E0084610BD2168C1F38811A1FB80
:100C000000010023FFF7DCFA2168C1F30141491C10
:100C10004900B0FBF1F010BD083802400024F40098
:100C200040787D012DE9F84F050076D02878DFF86F
:100C3000F8B2BE4CC00749D0DBF800105846C1F3EB
:100C40008101012908D00068C0F3810002280AD17F
:100C5000201D0068400206D52068800336D56868EC
:100C60000028E2D032E06868B0F5803F10D0B0F5DF
:100C7000A02F206810D020F480302060206820F45D
:100C8000802020606868A0B1FFF770FE06460CE087
:100C9000206840F48030F4E740F480202060F7E7DB
:100CA000FFF764FE801B642873D820688003F7D5A3
:100CB0000CE0FFF75BFE064605E000BFFFF756FEBF
:100CC000801B6428F0D820688003F7D42878DFF8E8
:100CD000608280074FF000093ED5DBF800105846CF
:100CE00011F00C0F09D00068C0F3810002280BD16D
:100CF0008D48001F0068400206D42068800715D583
:100D0000E868012809D111E0E868B8B10120C8F805
:100D10000000FFF72BFE064605E002E1FFF726FE86
:100D2000801B0228C0D820688007F7D52068296971
:100D300020F0F80040EAC10020600DE0C8F8009003
:100D4000FFF714FE064604E0FFF710FE801B0228A2
:100D50001FD820688007F7D42878000722D5724E64
:100D6000744869696C3671B101210160FFF7FEFDBD
:100D7000074604E0FFF7FAFDC01B022809D83068D7
:100D80008007F7D50EE0C0F80090FFF7EFFD0746AB
:100D900005E083E0FFF7EAFDC01B02287ED830683B
:100DA0008007F7D42878400768D5DFF87CA10027B2
:100DB0000AF1380ADAF80000C0000BD4DAF80010A3
:100DC00041F08051CAF80010DAF80000012700F065
:100DD00080500090584E3068C00510D4306840F400
:100DE00080703060FFF7C2FD009005E0FFF7BEFDA8
:100DF0000099401A022851D83068C005F6D54A4EED
:100E0000A868683601280FD00528306810D020F077
:100E100001003060306820F004003060A868B8B18C
:100E2000FFF7A4FD00900FE0306840F00100F4E708
:100E300040F004003060F7E7FFF798FD0099411A91
:100E400041F28830814264D830688007F4D50EE0E2
:100E5000FFF78CFD009007E0FFF788FD0099411A2D
:100E600041F28830814254D830688007F4D42FB1E1
:100E7000DAF8001021F08051CAF80010A869C0B358
:100E8000DBF80010C1F3810102294AD0022848464C
:100E900007D0C8F86000FFF769FD00E039E00546BB
:100EA0003AE04746C8F86000FFF760FD064604E0F8
:100EB000FFF75CFD801B02282BD820688001F7D447
:100EC000D5E907010843A96A1C4A490802EB014118
:100ED0006A6A41EA8211084395F82C1040EA0161E0
:100EE0001148001F016001203866FFF73FFD0546ED
:100EF00005E014E0FFF73AFD401B022809D82068FE
:100F00008001F7D50BE000BFFFF730FD401B022842
:100F100002D90320BDE8F88F20688001F4D40020B6
:100F2000F8E70120F6E700000838024000380240E8
:100F300000004742800E4742007000400000FFFF63
:100F400010B5401EB0F1807F01D3012010BD4FF0DD
:100F5000E02460610F21601700F040F90020A061DB
:100F600007202061002010BDFEE7024641F080000E
:100F7000012A01D14030C0B200F00AB810B50446D1
:100F8000000900F02DF82046BDE8104000F028B818
:100F900070B5084C0546002280212046FFF7E1FC91
:100FA0002846FFF7EBFF2046BDE870400122802174
:100FB000FFF7D7BC0010024070B5084C054601226F
:100FC00080212046FFF7CDFC2846FFF7D7FF2046BB
:100FD000BDE8704000228021FFF7C3BC0010024032
:100FE00070B500070D4C010C01222046FFF7B9FC3B
:100FF0000122D50229462046FFF7B3FC6420FFF703
:10100000C1FB002229462046FFF7ABFC2046BDE885
:10101000704000224FF47041FFF7A3BC0010024063
:1010200010B5044603E000BFFFF7C6FF641C20783C
:101030000028F9D110BD000070B586B014216846B3
:10104000FFF709F921480024016841F0040101601B
:10105000016801F004010591016841F0100101608F
:10106000016801F010010591016841F00101016082
:101070000068174E00F001004FF6804505900022F1
:1010800029463046FFF76DFC01200095CDE90104AB
:10109000694630460394FFF787FB4FF43460CDE98F
:1010A000000469460B480294FFF77EFB4FF40040B2
:1010B000CDE90004694608480294FFF775FB002259
:1010C00031153046FFF74DFC06B070BD3038024098
:1010D000001002400008024000000240FEE7704796
:1010E00070477047FFF748BC10B592B03021684692
:1010F000FFF7B1F814210CA8FFF7ADF8144800244D
:10110000016841F080510160006800F0805011904A
:101110001048016821F4804101600068069400F4E1
:101120008040119002200090012003901020049034
:101130006846FFF777FD0F20CDE90C040E940F945D
:1011400000210CA81094FFF7A3FC12B010BD000002
:1011500040380240007000401048016841F47001BE
:1011600001600F48016841F0010101600C4A002153
:101170000832116002680B4B1A400260031D0A4AD4
:101180001A60026822F48022026005480C30016077
:1011900002495806803908607047000088ED00E079
:1011A00000380240FFFFF6FE1030002470B50546FF
:1011B00000F070FB401C04460121FFF757F80021A6
:1011C0000A2207E095FBF2F302FB135395FBF2F5BD
:1011D0004354491CA142F5DB70BDFEE70907090E27
:1011E000002804DB00F1E02080F80014704700F0D4
:1011F0000F0000F1E02080F8141D7047000000008F
:1012000070B5D94B00242DED020B2DED108BDDE9CF
:101210001010984205DA20F000429A4201D809D114
:1012200041B19DED100BBDEC108B02B0BDE87040DC
:1012300000F0F6BAB0F5801F26DA11430BD0002873
:1012400013DA012000F018FBBDEC108B02B0BDE8F2
:10125000704000F0F1BA022000F00EFB00F0C8FA76
:1012600051EC100B81F000419EE06FF035049FEDD2
:10127000C00B53EC102B9DED100B51EC100BFFF736
:10128000C9F8CDE91001084604EB2051C0F313045E
:10129000B948A1F2FF31204400F4801080F07F6251
:1012A00082F04052224301EB20559FEDB50B119285
:1012B00053EC102B9DED100B51EC100BFFF7A4F825
:1012C00041EC180BA01CC0F313009FEDAFDB9FEDAA
:1012D000B0EBB14E7E4403286CD296ED000B51EC7E
:1012E000180B53EC102BFFF709FA1DD1002D01BF8D
:1012F00096ED000BBDEC108B02B070BD2846FFF7D9
:10130000FBF841EC180B53EC1D2BFFF783F841EC75
:10131000190B53EC1E2B51EC180BFFF77BF853EC19
:10132000192BFEF7D0FF3FE09FED9D0B51EC180B02
:1013300053EC102BFFF76EF89FED9B1B53EC112B1A
:10134000FFF765F841EC190B53EC182B51EC180B17
:10135000FFF760F853EC192BFFF75CF841EC190B21
:10136000002D04BF53EC192B51EC180B1AD0284652
:10137000FFF7C2F841EC1A0B53EC1D2BFFF74AF8AC
:1013800053EC192BFFF743F853EC182BFFF73CF8FD
:1013900041EC180B53EC1E2B51EC1A0BFFF73AF8EB
:1013A00053EC182BFFF730F8BDEC108B02B041EC7A
:1013B000100B70BD9FED7E0B51EC180B53EC102BF6
:1013C000FEF781FF41EC100B51EC180B53EC102B86
:1013D000FFF725F941EC190B2846FFF78DF841EC92
:1013E0001B0B53EC192B51EC190BFFF713F841ECC5
:1013F0001A0B714853EC1A2B261851EC1A0BFFF7F5
:1014000009F841EC1F0B6D48C4F1510404F5D724D1
:10141000B0EE4F0AF0EE6F0A0321784400F06CF949
:1014200053EC1F2B51EC100BFEF7F4FF41EC1C0B9F
:101430006348B0EE4F0AF0EE6F0A0421784400F0E2
:101440005BF953EC1A2B51EC100BFEF7E3FF34431E
:1014500053EC1C2BFEF737FF41EC1C0B002C4CDD32
:101460009FED510B51EC180B53EC102BFEF7D2FFF4
:1014700053EC182BFEF7CEFF41EC1A0B55B353EC8F
:101480001D2B51EC1B0BFEF7C5FF41EC1D0B53EC64
:101490001C2B51EC1A0BFEF716FF53EC192BFEF721
:1014A000B9FF53EC1D2BFEF70EFF53EC1A2BFEF782
:1014B000AEFF53EC182BFEF7A7FF41EC180B53ECD3
:1014C0001E2B51EC1B0BFEF7A5FF53EC182BFEF760
:1014D0009BFF69E753EC1C2B51EC1A0BFEF7F3FE54
:1014E00053EC192BFEF796FF53EC1A2BFEF78FFFE8
:1014F00053EC182BFEF78BFF56E735B353EC1D2B3F
:1015000051EC1B0BFEF786FF41EC1A0B53EC1C2B26
:1015100051EC180BFEF778FF53EC192BFEF77AFF0E
:1015200053EC1A2BFEF770FF53EC182BFEF76CFFF1
:1015300041EC180B53EC1E2B51EC1B0BFEF76AFF12
:1015400053EC182BFEF760FF2EE753EC1C2B51ECED
:10155000180BFEF759FF53EC192BFEF75BFF53EC0A
:10156000182BFEF754FF1FE70000F07F000000007B
:101570000000000000005043645F0900000000000C
:10158000000000000000F03F763C7935EF39EA3D7D
:101590000000E0FE422EE63F1807000000000000B9
:1015A000555555555555D53F000000000000E03F0A
:1015B000000000000000004086EBF9FF9A050000E3
:1015C000900500000000000070B5414A00252DED97
:1015D000020B2DED048BDDE90404944205DA24F0BE
:1015E0000041914201D809D140B19DED040BBDEC01
:1015F000048B02B0BDE8704000F012B9B4F5801F52
:1016000026DA08430BD0002C13DA012000F034F95D
:10161000BDEC048B02B0BDE8704000F00DB90220B3
:1016200000F02AF900F0E4F851EC100B81F00041D1
:1016300046E09FED290B6FF0350553EC102B9DED27
:10164000040B51EC100BFEF7E5FECDE904010C464E
:1016500005EB2450A0F2FF30C10F40F2FF32521AC6
:1016600062F31F540844FEF747FF05949DED040BF9
:1016700041EC180B51EC100B00F004F99FED181B16
:1016800053EC112BFEF7C6FE9FED170B41EC190B27
:1016900053EC102B51EC180BFEF7BCFE53EC192B3E
:1016A000FEF711FE9FED120B41EC190B53EC102BC2
:1016B00051EC180BFEF7AEFE53EC192BFEF703FEB0
:1016C000BDEC048B02B041EC100B70BD00000000BB
:1016D0000000F07F00000000000000000000504308
:1016E0000EE526157BCBDB3F362BF111F3FE593D82
:1016F00000609F501344D33F70B504462DED028B1C
:101700004D1E00EBC500B0EE408AF0EE608A90ED11
:10171000000B35F0060017D053EC182B51EC100BD2
:10172000FEF778FE41EC100B6D1E04EBC50090ED4A
:10173000001B51EC100B53EC112BFEF7C4FD41ECD8
:10174000100B35F00600E7D1022D36D0042D1CD049
:10175000062D1CBFBDEC028B70BD53EC182B51EC59
:10176000100BFEF757FE94ED0A1B53EC112BFEF7FE
:10177000AAFD53EC182BFEF74DFE94ED081B53EC1D
:10178000112BFEF7A0FD41EC100B53EC182B51EC84
:10179000100BFEF73FFE94ED061B53EC112BFEF7EA
:1017A00092FD53EC182BFEF735FE94ED040B53EC31
:1017B000102BFEF788FD41EC100B53EC182B51EC6D
:1017C000100BFEF727FE94ED021B53EC112BFEF7D6
:1017D0007AFD53EC182BFEF71DFE94ED001B53EC25
:1017E000112BFEF770FDBDEC028B41EC100B70BDB0
:1017F0009FED070B10B553EC102B9FED070B51EC31
:10180000100BFEF70CFF41EC100B10BD00000000A8
:101810000000000000000000000000000000F03F99
:1018200010B553EC102B51EC100BFEF74CFD41ECB6
:10183000100B10BD000000009FED050B10B553EC20
:10184000102B51EC100BFEF7EAFE41EC100B10BD13
:10185000000000000000000002E008C8121F08C1DC
:10186000002AFAD170477047002001E001C1121F21
:10187000002AFBD170470000014908607047000052
:101880001400002010B541EC100BFFF7B9FC51EC2F
:10189000100B10BD10B541EC100BFFF795FE51EC8D
:1018A000100B10BD1CB5FFF76FF8FEF741FFFFF7F7
:1018B0001BFCFFF7C1FB204E4FF416774FF4006876
:1018C0004FF400494FF4007A4FF4807B3846FEF71E
:1018D00059FF41463046FFF73FF804464946304637
:1018E000FFF73AF8054651463046FFF735F80190C4
:1018F00040213046FFF730F8009059463046FFF758
:101900002BF8012C09D0012D07D00199012904D011
:101910000099012901D00128D8D10120FFF738FB17
:1019200000210846FFF721FBFEF77CFCFFF73EFC99
:10193000FFF776FBCAE7000000080240F0B50B3065
:10194000154D20F007010024144A0FE003688B4274
:101950000BD38B4205D95E1A43184768C3E9006769
:1019600000E04368136002C004E0021D1068002814
:10197000ECD12046002802D1286808B10020F0BD33
:10198000064A07481060074A121A22F00702C0E907
:10199000002401202860D7E71C0000201800002048
:1019A00024000020200200200000000000000000B1
:1019B000010203040607080904FA97999999D93F87
:1019C000AF788E1DC571CC3F9FC678D0099AC33FB2
:1019D000935555555555E53F599322942449D23F87
:1019E000DE03CB966446C73F44523EDF12F1C23F4E
:1019F0000000000000000000181A0008000000208D
:101A00002000000058180008381A000820000020A4
:101A10000006000068180008010000001000000027
:101A2000000000000024F40000000000000000009E
:081A30000000000000000000AE
:040000050800018965
:00000001FF
